:1000000024C03EC03DC0B2C43BC03AC039C038C0B5
:1000100037C03EC535C0C3C733C032C031C030C0A1
:100020002FC02EC02DC0C0C2CAC2DFC2FBC211C3C6
:1000300035C320C354C386C487C488C489C48AC452
:100040008BC48CC48DC48EC48FC411241FBECFE555
:10005000D4E0DEBFCDBF11E0A0E6B0E0E2E7F6E11C
:1000600002C005900D92A838B107D9F722E0A8E8A0
:10007000B1E001C01D92A733B207E1F77AD3F7CA06
:10008000BFCF70D78AE06AC7CF93C82F88E690E0C9
:1000900069D78AE0C89FF0011124E85CFE4F818196
:1000A000928160D78AE3CF9159C76F927F928F92E6
:1000B0009F92AF92BF92CF92DF92EF92FF920F93F7
:1000C0001F93CF93DF93CDB7DEB760970FB6F89449
:1000D000DEBF0FBECDBF8AE690E0D3DF912C8AE071
:1000E000882E95E8E92E90E0F92ECE0101966C015C
:1000F000A92CB12C8A9C80018B9C100D1124085CCA
:100100001E4FF8016180728061147104A9F18EE7BD
:1001100090E028D788E690E025D7C30123D7F801DF
:100120008081882329F181E890E01CD7F80184813F
:100130009581009709F016D78A9CF0018B9CF00DF1
:100140001124E85CFE4F81858F9380858F93878192
:100150008F9386818F93FF92EF92DF92CF92AFD7EA
:10016000C6018FDF0FB6F894DEBF0FBECDBF02C051
:100170008AE0F4D69394BCCF60960FB6F894DEBFB5
:100180000FBECDBFDF91CF911F910F91FF90EF90E8
:10019000DF90CF90BF90AF909F908F907F906F90A7
:1001A00008952AE0629FF0011124E85CFE4F23814C
:1001B0002D5F820F911DFC0180818F3321F08D33E3
:1001C00021F08FEF089580E0089581E008959F92D7
:1001D000AF92BF92CF92DF92EF92FF920F931F9355
:1001E000CF93DF93CDB7DEB7A0970FB6F894DEBFFD
:1001F0000FBECDBF6C017B0110E08AE0982E919E6E
:10020000F0011124E85CFE4FA180B280A114B1047A
:1002100021F1438103E0040F6EE770E0CE01019607
:1002200039D768E670E0CE01019629D7B501CE0135
:10023000019625D7402F50E0BE016F5F7F4FC6016A
:1002400030D7892B41F4612FC601ABDF8F3F19F006
:10025000F701108305C01F5FD2CF8FEFF7018083B6
:10026000A0960FB6F894DEBF0FBECDBFDF91CF9141
:100270001F910F91FF90EF90DF90CF90BF90AF90C4
:100280009F9008952AE0829FC0011124FC01E85C40
:10029000FE4F868197816817790748F081E02085B5
:1002A00031852617370708F080E0819508958FEF94
:1002B0000895CF93DF936623A1F0C62FD82F6695BC
:1002C000F8DF889F9001899F300D300D1124C0FD0B
:1002D00002C0C90108C0D29FC001D39F900D112454
:1002E00002C081E090E0DF91CF910895CF92DF923C
:1002F000EF92FF921F93CF93DF937C016A01FA0183
:10030000118210821FEF160FD12FD7FD29C0F701E0
:10031000ED0FF11DD7FDFA95C08180ED8C0F8A306D
:10032000C8F4612F6D1B8AE0C4DF2C2F30E020530E
:100330003109AC01249FC001259F900D349F900D81
:100340001124F60120813181820F931F91838083D4
:10035000D150DBCF8FEF9FEFF6019183808301C0F7
:1003600080E0DF91CF911F91FF90EF90DF90CF90D1
:100370000895EF92FF921F93CF93DF93CDB7DEB72F
:10038000A0970FB6F894DEBF0FBECDBFFC017B0176
:1003900010E0212F30E0DF01A20FB31F8C918D33CD
:1003A00011F01F5FF6CF90E0DF01A90FB11D8C9116
:1003B0008A3019F51095190F412F50E0B9016F5F80
:1003C0007F4F6E0F7F1FCE01019650D6A701612F80
:1003D000CE0101968BDF91E0811101C090E0892F61
:1003E0008195A0960FB6F894DEBF0FBECDBFDF910A
:1003F000CF911F91FF90EF9008958D30D9F29F5FBC
:10040000D3CF80E895E29DD580E2E5E9F1E0DF0118
:100410001D928A95E9F707D6109294010895EF92FC
:10042000FF921F93CF93DF9300D000D000D0CDB7C1
:10043000DEB7182F7B01CE0101967FD442E0BE01CA
:100440006B5F7F4F88E025D51330A1F030F4113079
:1004500079F01230D9F48A8110C0153089F060F03B
:100460001630A1F48E81F701808386E990E00DC0FB
:10047000898103C08B8101C08C81F701808306C014
:100480008D81F70180838FE890E0FBDD26960FB623
:10049000F894DEBF0FBECDBFDF91CF911F91FF90CB
:1004A000EF9008950F931F93CF93DF9300D000D068
:1004B00000D0CDB7DEB7182F062FCE0101963DD460
:1004C00042E0BE016B5F7F4F88E0E3D4133091F0D0
:1004D00030F4113069F01230A9F40A8313C01530DA
:1004E00069F050F0163071F40E8386E990E009C08F
:1004F000098308C00B8306C00C8304C00D838FE8FA
:1005000090E0BFDDCE0101966FD442E0BE016B5F8B
:100510007F4F88E0A1D426960FB6F894DEBF0FBEB9
:10052000CDBFDF91CF911F910F9108956F927F9270
:100530008F929F92AF92BF92CF92DF92EF92FF92F3
:100540000F931F93CF93DF93CDB7DEB72E970FB6E0
:10055000F894DEBF0FBECDBF1E861D861C861B868F
:1005600081E01AE09CE8E92E90E0F92E9E012F5FD1
:100570003F4F690107E0AA24A39425E0B22E34E09E
:10058000932E42E0842E53E0752E66E0662E409155
:10059000940150E0882309F4ACC0FA0148305105B9
:1005A000C8F7ED5EFF4F099485E991E0E6D4882312
:1005B00019F0A09294019BC01092940196C0BE01C4
:1005C000625F7F4F85E991E002DE882341F0813050
:1005D00049F08F3F09F08BC06092940188C08092EF
:1005E000940185C07092940182C0EE851E9FF00137
:1005F0001124E85CFE4FBE01635F7F4F80810FDFF7
:100600008D8590E09C878B87EE851E9FF0011124DD
:10061000E85CFE4F2081243051F58053984F9C8731
:100620008B8725C0BE01655F7F4F85E991E0A1DE24
:10063000811131C06B857C85EE851E9FF0011124F0
:10064000E85CFE4F80811EDE811125C090929401EE
:100650004EC0EE851E9FF0011124E85CFE4F8081A4
:100660009B85843009F4905D9D876D851BDFB0927A
:1006700094013DC08DE990E075D480E26FD48EE79F
:1006800090E070D488E690E06DD481EB90E06AD47D
:1006900086EB90E0F6DC0093940129C08E85F4DCB3
:1006A000EE851E9FF0011124E85CFE4F80818823B7
:1006B00091F08C858F938B858F93FF92EF92DF92D1
:1006C000CF92FDD4C601DDDC0F900F900F900F90FC
:1006D0000F900F9001C0E9DC88EB90E002C08BEB3B
:1006E00090E0CFDC109294019ED480E050CF81E066
:1006F0004ECF2E960FB6F894DEBF0FBECDBFDF9162
:10070000CF911F910F91FF90EF90DF90CF90BF900E
:10071000AF909F908F907F906F900895B89ABA9AFB
:10072000BB9AB99ABF9A8D9ABF9ABD9ABE9A8E9A71
:10073000A09AA19AA29AA39A8C988B988A98949A34
:10074000939A929ABC9AC49883B7846083BF89B7FE
:10075000816089BF82EA82BF85B5886085BD85B525
:10076000846085BD8CE783BD89B7806889BF789434
:100770000895CF93DF9300D01F92CDB7DEB7A6D3F5
:10078000CDDF3FDECE01019651D21AE000E88FE0C6
:10079000D82E90E1E92E97E2F92E809193018823DB
:1007A00009F47FC0D092600080919301882309F4FE
:1007B00054C080918E01882379F1F0929001E092EB
:1007C0008F01809162008F5F809362008091620050
:1007D000843058F080916100823038F010926200CD
:1007E000809161008F5F80936100809162008A3008
:1007F00058F080916100823038F41092620080914C
:1008000061008F5F8093610080916100833010F000
:100810001092610010928E0180918B01882321F249
:10082000F0929001E0928F01809164008F5F80933D
:100830006400809164008A3038F0109264008091E6
:1008400063008F5F8093630080916300863010F0B7
:100850001092630010928B01A7CF0093600010925A
:1008600089011092880180918F0190919001892BCC
:1008700009F493CF90916100809162002AE0929FE9
:10088000800D1124898390916300809164003AE087
:10089000939F800D11248A831B82CE01019617D26B
:1008A0007CCFB980CE010196C1D1C82E8B81612F3A
:1008B000BDD390936600809365008A81B7D39093EF
:1008C0006400809363002981822FB0D390936200EB
:1008D00080936100B21214C029DE8FEFC81226C0C7
:1008E000919AD09260001092610010926200109272
:1008F00063001092640010926500109266004DCF64
:1009000080E0809361008093620080936300809315
:1009100064009FEF24E33CE0915020403040E1F739
:1009200000C000008F5F8A3061F7D6CF91980093A6
:10093000600033CF90E08A309105B8F4FC01E55EA9
:10094000FF4F0994C09A0895C29A0895C39A0895D2
:10095000C19A0895979A0895959A0895C79A089507
:10096000C59A0895C69A0895969A08951F920F926F
:100970000FB60F9211242F938F939F9380918D0127
:10098000880F80938D0180B390918D018295817045
:10099000892B80938D0180918D0180938D018091B1
:1009A0008C01880F80938C0190B320918C0193FB74
:1009B000882780F9822B80938C0180918C01809311
:1009C0008C0180918A01880F80938A0190B32091D5
:1009D0008A0192FB882780F9822B80938A0180917B
:1009E0008A0180938A0180918C01803F61F490910B
:1009F000930181E089278093930180E197E29093AE
:100A0000900180938F0180919301882371F08091F0
:100A10008D01803F19F481E080938E0180918A01DD
:100A2000803F19F481E080938B01809193018823AA
:100A300099F080918F0190919001892B51F08091D4
:100A40008F019091900101979093900180938F0175
:100A500017C01092930114C0809188019091890170
:100A6000883E934020F01092890110928801809175
:100A70008801909189010196909389018093880162
:100A80009F918F912F910F900FBE0F901F901895EF
:100A90001F920F920FB60F9211242F933F934F93F3
:100AA0005F936F937F938F939F93AF93BF93EF93D6
:100AB000FF9382EA82BFA898A998AA98AB98C09899
:100AC000C298C398C19897989598C798C598C698A2
:100AD00096989198C4982091B50181E090E001C06A
:100AE000880F2A95EAF7809391018091B5018130B2
:100AF000E1F028F08230F9F0833019F127C08091BD
:100B000061008A3020F48091610081110CC08091D5
:100B100061008A30D8F480916100811117C0809102
:100B20006200811113C0A89A11C0809162008A30BE
:100B300068F4A99A0BC0809163008A3038F4AA9AAD
:100B400005C0809164008A3008F4AB9A80919201CC
:100B50008F5F8093920180919201909160008091CB
:100B6000910189238F7049F080919201833328F499
:100B7000A898A998AA98AB9807C0E091B501F0E0B1
:100B8000EF59FF4F8081D6DE8091600087FF07C05C
:100B90008091880190918901833F914008F4C49A23
:100BA0008091B5018F5F8093B5018091B50184304C
:100BB00010F01092B501FF91EF91BF91AF919F910D
:100BC0008F917F916F915F914F913F912F910F90F6
:100BD0000FBE0F901F9018951F93CF93DF93182F80
:100BE000EB0180ED78D1811109C0812F96D181ED83
:100BF0008DD1A0D188838BD180E001C08FEFDF91B0
:100C0000CF911F910895CF93DF93D82FC62F80EDFA
:100C100062D1811107C08D2F80D18C2F7ED177D1E9
:100C200080E001C08FEFDF91CF9108950F931F9364
:100C3000CF93DF931F92CDB7DEB78C011982BE012F
:100C40006F5F7F4F80E0C8DF8F3F11F48FEF39C0B7
:100C50008981982F9695969596959E70292F220FAB
:100C6000220F920F8F70890FF8018283BE016F5F90
:100C70007F4F81E0B1DF8F3F49F38981982F9695AF
:100C8000969596959E70292F220F220F920F8F70A6
:100C9000890FF8018183BE016F5F7F4F82E09CDF87
:100CA0008F3FA1F28981982F96959695969596708B
:100CB000292F220F220F920F8F70890FF801808346
:100CC00080E00F90DF91CF911F910F9108950F93C6
:100CD0001F93CF938C01FC018281CAE06C2FA6D1B7
:100CE000692FF0E18F9F600D112480E08CDF8F3F32
:100CF00011F48FEF1EC0F80181816C2F97D1692FFD
:100D0000F0E18F9F600D112481E07DDF8F3F89F33B
:100D1000F80180816C2F8AD1692FF0E18F9F600DDF
:100D2000112482E070DF91E08F3F09F090E0892F7D
:100D30008195CF911F910F9108950F931F93CF939A
:100D4000DF931F92CDB7DEB78C011982BE016F5FB2
:100D50007F4F83E041DF8F3F11F48FEF3FC08981E8
:100D6000F8018083BE016F5F7F4F84E035DF8F3FE6
:100D7000A1F38981982F9695969596959670292F2F
:100D8000220F220F920F8F70890FF8018183BE010D
:100D90006F5F7F4F85E020DF8F3FF9F2898184FB11
:100DA000992790F9990F292F220F220F920F8F70F8
:100DB000890FF8018283BE016F5F7F4F86E00CDFF1
:100DC0008F3F59F28981982F92959F708F70FAE02A
:100DD0009F9F800D1124F801838380E00F90DF91A5
:100DE000CF911F910F9108951F93CF93DF93EC0143
:100DF000688183E008DF8F3F11F48FEF29C089817C
:100E00001AE0612F13D1692F20E1829F600D112418
:100E100084E0F9DE8F3F89F38A81612F07D1692F42
:100E200020E1829F600D112485E0EDDE8F3F29F3E4
:100E30008B81612FFBD0692F20E1829F600D1124EF
:100E400086E0E1DE91E08F3F09F090E0892F819507
:100E5000DF91CF911F9108950F931F93CF93DF934D
:100E60008B01C82FD42FD80F8D2F8C1B18164CF444
:100E7000F80161918F018C2FC6DE8F3F21F0CF5F8B
:100E8000F3CF80E001C08FEFDF91CF911F910F91E1
:100E900008950F931F93CF93DF938B01C82FD42F07
:100EA000D80F8D2F8C1B18164CF4B8018C2F94DEA4
:100EB0008F3F31F00F5F1F4FCF5FF3CF80E001C056
:100EC0008FEFDF91CF911F910F91089500C011B85E
:100ED00080E280B9089594EA96BF06B607FEFDCF7A
:100EE00091B1987F983021F0903111F081E0089510
:100EF00083B984E886BF06B607FEFDCF81B1887F3F
:100F0000883111F0803491F780E00895E4CF84E9CE
:100F100086BF06B604FCFDCF089583B984E886BF7A
:100F200006B607FEFDCF91B1987F81E0983209F4B3
:100F300080E0089584E886BF06B607FEFDCF83B142
:100F40000895BC0184E294EF7DD06150710970BDB9
:100F500069B988E98AB986E880BD08955D9BFECFAE
:100F60008CB90895CF93DF93EC018991882311F018
:100F7000F5DFFBCFDF91CF910895CF93C09167004C
:100F8000C13049F466EB71E085D082E08093670060
:100F90001092360201C0C0E08C2FCF9108951F92AD
:100FA0000F920FB60F9211248F93AF93BF93EF93CD
:100FB000FF9380913602803811F4109236028091AE
:100FC0006700813031F1E09136028CB1F0E0EA54F3
:100FD000FE4F8083A0913602E0913602B0E0AA5421
:100FE000BE4F8C918D3031F0F0E0EA54FE4F80819D
:100FF0008A3051F4E0913602F0E0EA54FE4F11825B
:1010000081E08093670005C0809136028F5F8093F6
:101010003602FF91EF91BF91AF918F910F900FBE6C
:101020000F901F901895109236020895991B79E041
:1010300004C0991F961708F0961B881F7A95C9F768
:1010400080950895AA1BBB1B51E107C0AA1FBB1FB7
:10105000A617B70710F0A61BB70B881F991F5A9544
:10106000A9F780959095BC01CD010895FB01DC01A5
:1010700002C001900D9241505040D8F70895FB01F5
:10108000DC010D900020E9F7119701900D920020EE
:10109000E1F70895FB01DC0101900D920020E1F7DA
:1010A0000895FB01DC014150504030F08D910190DA
:1010B000801919F40020B9F7881B990B0895AEE048
:1010C000B0E0E4E6F8E0AAC20D891E8986E08C83D0
:1010D0001A8309838FEF9FE79E838D83AE01475E5E
:1010E0005F4F6F89788DCE01019608D0EF81F8852A
:1010F000E00FF11F10822E96E4E0ACC2ABE0B0E04E
:10110000E3E8F8E07DC26C017B018A01FC011782F3
:101110001682838181FFBFC1CE0101963C01F60199
:101120009381F70193FD859193FF81917F0188233E
:1011300009F4ADC1853239F493FD859193FF819116
:101140007F01853221F4B60190E0C0D1E8CF912C27
:10115000212C312CFFE1F315D8F08B3279F038F4E3
:10116000803279F08332A1F4232D20611DC08D32AD
:1011700061F0803369F4232D216016C0832D8260D5
:10118000382EE32DE4603E2E2AC0F32DF8601DC0FA
:1011900037FC2DC020ED280F2A3040F08E32B9F4F4
:1011A00036FC75C1232D2064322E19C036FE06C0D0
:1011B0008AE0989E200D1124922E11C0EAE02E9E06
:1011C000200D1124222EF32DF0623F2E08C08C3604
:1011D00021F4832D8068382E02C0883641F4F7014F
:1011E00093FD859193FF81917F018111B3CF982F5A
:1011F0009F7D9554933028F40C5F1F4F9FE3998394
:101200000DC0833631F0833771F0833509F055C056
:1012100020C0F801808189830E5F1F4F882483944A
:10122000912C530112C02801F2E04F0E511CF8011D
:10123000A080B18036FE03C0692D70E002C06FEF60
:101240007FEFC50138D14C018201F32DFF773F2E8E
:1012500015C0280122E0420E511CF801A080B18087
:1012600036FE03C0692D70E002C06FEF7FEFC5014D
:1012700017D14C01F32DF0683F2E820133FC19C0C9
:10128000822D90E088169906A0F4B60180E290E0E5
:101290001DD12A94F5CFF50137FC859137FE819158
:1012A0005F01B60190E012D121102A9421E0821A48
:1012B00091088114910479F7E1C0843611F08936E0
:1012C00039F5F80137FE07C0608171818281938111
:1012D0000C5F1F4F08C060817181072E000C880BC6
:1012E000990B0E5F1F4FF32DFF763F2E97FF09C01E
:1012F00090958095709561957F4F8F4F9F4FF068C7
:101300003F2E2AE030E0A3011DD1882E861844C06C
:10131000853731F4232D2F7EB22E2AE030E025C010
:10132000932D997FB92E8F36C1F018F4883579F056
:10133000AEC0803719F0883721F0A9C0E92FE061ED
:10134000BE2EB4FE0DC0FB2DF460BF2E09C034FECE
:101350000AC0292F2660B22E06C028E030E005C062
:1013600020E130E002C020E132E0F801B7FE07C022
:1013700060817181828193810C5F1F4F06C0608103
:10138000718180E090E00E5F1F4FA301DBD0882EBB
:101390008618FB2DFF773F2E36FE0DC0232D2E7FA6
:1013A000A22E891458F434FE0BC032FC09C0832DE0
:1013B0008E7EA82E05C0B82CA32C03C0B82C01C06B
:1013C000B92CA4FE0FC0FE01E80DF11D8081803311
:1013D00021F49A2D997EA92E09C0A2FE06C0B394CD
:1013E000B39404C08A2D867809F0B394A3FC10C08E
:1013F000A0FE06C0B21480F4280C922C9B180DC0DD
:10140000B21458F4B60180E290E060D0B394F8CF03
:10141000B21418F42B1802C0982C212CA4FE0FC073
:10142000B60180E390E052D0A2FE16C0A1FC03C03A
:1014300088E790E002C088E590E0B6010CC08A2DF4
:10144000867851F0A1FE02C08BE201C080E2A7FCC9
:101450008DE2B60190E03AD0891430F4B60180E311
:1014600090E034D09A94F8CF8A94F301E80DF11DFE
:101470008081B60190E02AD08110F6CF222009F4B5
:101480004ECEB60180E290E021D02A94F7CFF6014B
:101490008681978102C08FEF9FEF2B96E2E1CCC04F
:1014A000FC010590615070400110D8F7809590952F
:1014B0008E0F9F1F0895FC01615070400190011034
:1014C000D8F7809590958E0F9F1F08950F931F93C7
:1014D000CF93DF93FB01238121FD03C08FEF9FEFAB
:1014E0002CC022FF16C046815781248135814217C6
:1014F000530744F4A081B1819D012F5F3F4F318399
:1015000020838C93268137812F5F3F4F378326833B
:1015100014C08B01EC01FB010084F185E02D0995DD
:10152000892BE1F6D80116968D919C91179701961B
:1015300017969C938E931697CE01DF91CF911F91B2
:101540000F910895FA01AA27283051F1203181F135
:10155000E8946F936E7F6E5F7F4F8F4F9F4FAF4FBB
:10156000B1E03ED0B4E03CD0670F781F891F9A1FCE
:10157000A11D680F791F8A1F911DA11D6A0F711D82
:10158000811D911DA11D20D009F468943F912AE08E
:10159000269F11243019305D3193DEF6CF01089576
:1015A000462F4770405D4193B3E00FD0C9F7F6CFA7
:1015B000462F4F70405D4A3318F0495D31FD40526F
:1015C000419302D0A9F7EACFB4E0A6959795879505
:1015D00077956795BA95C9F70097610571050895E4
:1015E0009B01AC010A2E0694579547953795279590
:1015F000BA95C9F7620F731F841F951FA01D089528
:101600002F923F924F925F926F927F928F929F9212
:10161000AF92BF92CF92DF92EF92FF920F931F9300
:10162000CF93DF93CDB7DEB7CA1BDB0B0FB6F894B1
:10163000DEBF0FBECDBF09942A88398848885F84F1
:101640006E847D848C849B84AA84B984C884DF8062
:10165000EE80FD800C811B81AA81B981CE0FD11D46
:101660000FB6F894DEBF0FBECDBFED010895F8941C
:02167000FFCFAA
:10167200800A0A0A0A0A0A022400417661696C6138
:10168200626C6520636F6D6D616E64733A004154E4
:1016920000202D200020256420746F202564004B3B
:1016A200554E444131004B554E44413200547279FB
:1016B20020697420616761696E206F72207573659D
:1016C2000048454C50003F004F4B004552524F528C
:1016D200004441590028737461727473204D6F6E17
:1016E200646179290044415445004D4F4E544800ED
:1016F2004C4541505F59454152004E4F542053557D
:1017020050504F52544544202846616C73652F5403
:1017120072756529004441594C494748545F534109
:1017220056494E475F54494D45004E4F542053553C
:1017320050504F525445442028537072696E672F9F
:1017420057696E746572290000B100049D00FFFFA5
:10175200FFFF01C10003C5000100070002D500041C
:10176200000001001F0003DA0005000001000C0068
:1017720004E500040000D007330805E00009EA0090
:1017820000000100060501141A0100000100070013
:0817920000000000FFFFFFFF53
:00000001FF
